:100000000C942A000C943F000C943F000C943F0089
:100010000C943F000C943F000C943F000C943F0064
:100020000C943F000C943F000C943F000C943F0054
:100030000C943F000C943F000C943F000C943F0044
:100040000C943F000C943F000C943F000C943F0034
:100050000C943F0011241FBECFE5D4E0DEBFCDBF1E
:1000600010E0A0E6B0E0E6EAF4E002C005900D92F0
:10007000AC38B107D9F70E944F000C9451020C9490
:10008000000020E030E04AEF50E005C0FA0131976F
:10009000F1F72F5F3F4F28173907C0F308950F93EB
:1000A0001F93CF93DF9380E00E94140183E390E0DD
:1000B0000E94B4010E94AE0081E090E060E070E038
:1000C0000E94EC0080E690E00E943F0180E061E049
:1000D0000E94AB018CE690E00E943F0180E090E03E
:1000E0002AEF30E0F9013197F1F70196843191055B
:1000F000C9F781E090E060E070E00E94EC008CE7DE
:1001000090E00E943F01CAEFD0E080E090E00E94C2
:10011000B30020E030E0FE013197F1F72F5F3F4F51
:1001200024363105C1F78C0116950795802F90E094
:100130000E94BF0180E061E00E94AB01802F90E04F
:1001400063E070E00E944D0180E090E0FE01319795
:10015000F1F7019684369105C9F7D7CF80E487B9C6
:1001600087E886B9089597B1987F97B997B1877056
:10017000892B87B9369A349BFECF349A24B135B196
:10018000C901089584B3807F84BB959A969881E0D5
:100190008A95F1F721E0979A822F8A95F1F783B338
:1001A0008295807F922F9A95F1F79798922F9A9542
:1001B000F1F7979A922F9A95F1F793B3922F9A9518
:1001C000F1F79798922F9A95F1F787FDE4CF9598DC
:1001D00084B38F6084BB0895382F662311F49698FA
:1001E00001C0969A21E0822F8A95F1F7979A85B3FC
:1001F000932F92959F70807F982B95BB822F8A9525
:10020000F1F79798822F8A95F1F7979A85B33F7007
:10021000807F832B85BB822F8A95F1F797982A954B
:10022000F1F70E94C20008951F93182F8BE39BE201
:100230000197F1F784B38F6084BB8F9A8E9A8D9A61
:1002400085B3807F85BB97989598969881E0982F85
:100250009A95F1F7979AA99A982F9A95F1F7979806
:100260008A95F1F70E94C200812F8C6060E00E94A5
:10027000EC0088E260E00E94EC001F910895CF93AB
:10028000DF93EC0104C061E00E94EC0021968881BC
:100290008823C9F7DF91CF910895EF92FF920F93D2
:1002A0001F93DF93CF9300D000D00F92CDB7DEB76E
:1002B0009C018B01FE01319685E0DF011D928A953C
:1002C000E9F7FE0135960DC0C9016AE070E00E94B1
:1002D0002A028083C9016AE070E00E942A029B0121
:1002E00031972115310581F7BFEF0F3F1B0779F4D7
:1002F00020E030E0AE014F5F5F4F02C02F5F3F4F05
:10030000FA01E20FF31F80818823C1F304C025E0C6
:1003100030E0201B310B7E010894E11CF11CE20E41
:10032000F31E890109C0F70181917F01805D61E0C1
:100330000E94EC000F5F1F4F05301105A4F30F90D2
:100340000F900F900F900F90CF91DF911F910F9111
:10035000FF90EF900895883230F4611180648068D6
:1003600060E00E94EC00089589B990BD86E880BDE8
:1003700088ED8AB908955F9BFECF8CB108955D9B8F
:10038000FECF8CB908950F931F93DF93CF9300D0C6
:1003900000D00F92CDB7DEB79C018B01FE013196E4
:1003A00085E0DF011D928A95E9F7FE0135960DC0C3
:1003B000C9016AE070E00E942A028083C9016AE0F4
:1003C00070E00E942A029B0131972115310581F7C7
:1003D000BFEF0F3F1B0771F4A0E0B0E09E012F5F5D
:1003E0003F4F01C01196F901EA0FFB1F808188235E
:1003F000C9F304C0A5E0B0E0A01BB10BA530B10566
:10040000ACF4AC0FBD1F11968C915D9BFECF805D4F
:100410008CB984EC99E0FC013197F1F7FC0131973C
:10042000F1F7FC013197F1F70197F1F70F900F9079
:100430000F900F900F90CF91DF911F910F91089522
:10044000FC0104C05D9BFECF31968CB9808188236E
:10045000C9F7089597FB092E07260AD077FD04D027
:100460000CD006D000201AF4709561957F4F089546
:10047000F6F7909581959F4F0895AA1BBB1B51E1FC
:1004800007C0AA1FBB1FA617B70710F0A61BB70B04
:10049000881F991F5A95A9F780959095BC01CD01A9
:0604A0000895F894FFCF5F
:1004A60054656D7065726174757265004D6F6E6925
:1004B600746F72696E67204E6F64650054656D7067
:0C04C6006572617475726520304300009F
:00000001FF
